:100000000C9428010C9459010C9459010C94590139
:100010000C9459010C9459010C9459010C945901F8
:100020000C9459010C9459010C9459010C945901E8
:100030000C9459010C9459010C9459010C945901D8
:100040000C9459010C9459010C9459010C945901C8
:100050000C9459010C9459010C9459010C946005AD
:100060000C9459010C942A050C9400050C94590128
:100070000C9459010C9459010C9459010C94590198
:100080000C9459010C9459010C9459010C94590188
:100090000C9459010C9459010C9459010C94590178
:1000A0000C9459010C9459010C9459010C94590168
:1000B0000C9459010C9459010C9459010C94590158
:1000C0000C9459010C9459010C9459010C94590148
:1000D0000C9459010C9459010C94CA040C94A0047A
:1000E0000C9459010C94CA010C944B030C945703C3
:1000F0000C946A030C9480030C947C030C945A03B4
:100100000C9486030C948A030C946A020C942802C3
:100110000C946E030C9406020C9472030C947803F6
:100120000C94F7010C944F030C941A020C94530393
:100130000C9464030C9460030C94B7020C94390380
:100140000C94AA050C94340300000A0B02090C0D50
:100150000E0807030401000000000000000000007A
:10016000000000000000000000000000000000008F
:10017000000000001211100000000000000000004C
:10018000000000000000000000000000000000006F
:100190002200250028002B002E003100340002012F
:1001A0000000050108010B010000210024002700C8
:1001B0002A002D0030003300010100000401070176
:1001C0000A010505050507050808080802020202DC
:1001D0000A0A0808040404040101010101010101E3
:1001E0000303030303030303040707070C0C0C0CAE
:1001F0000C0C0C0C02020202060606060606060697
:100200000B0B0B0B0B0B0B0B010210202008081023
:100210002040102040800201020108040201010276
:10022000040810204080804020100804020180044F
:1002300002018040201008040201080402010102AA
:100240000408102040800102040810204080AA0504
:1002500011241FBECFEFD1E2DEBFCDBF00E00CBF47
:1002600012E0A0E0B2E0E6E6F0E100E00BBF02C081
:1002700007900D92A435B107D9F723E0A4E5B2E0C9
:1002800001C01D92A23AB207E1F711E0C8E2D1E045
:1002900000E006C021970109802FFE010E94290875
:1002A000C732D10780E00807A9F70E947E060C94A8
:1002B00031080C94000090E0FC01E85FFD4F2491B0
:1002C0008E539E4FFC018491882399F090E0880F13
:1002D000991FFC01E855FE4FA591B491FC01E2572E
:1002E000FE4F859194918FB7F894EC91E22BEC93AB
:1002F0008FBF0895FC01A089B18982E08C93A48509
:10030000B5851C92A685B7858FEC8C93108EA48939
:10031000B58986E08C93A289B3898C9180618C9396
:10032000A289B3898C9188608C93A289B3898C91BE
:1003300080688C930288F389E02D80818F7D808393
:100340000895FC018081823081F018F4813031F011
:100350000895833089F08430B1F008958FEF90E0F4
:10036000909389008093880008958FEF90E0909398
:100370009D0080939C0008958FEF90E09093A900DA
:100380008093A80008958FEF90E090939900809358
:1003900098000895AF92BF92CF92DF92EF92FF92B2
:1003A0000F931F93CF93DF936C017B018B01040F9D
:1003B000151FEB015E01AE18BF08C017D10759F039
:1003C0006991D601ED91FC910190F081E02DC6017B
:1003D0001995892B79F7C501DF91CF911F910F9165
:1003E000FF90EF90DF90CF90BF90AF900895FC0109
:1003F000538D448D252F30E0842F90E0821B930B8A
:10040000541710F0CF96089501970895FC01918D2F
:10041000828D981761F0A28DAE0FBF2FB11D5D9632
:100420008C91928D9F5F9F73928F90E008958FEFD4
:100430009FEF0895FC01918D828D981731F0828D88
:10044000E80FF11D858D90E008958FEF9FEF0895DF
:10045000FC01918D228D892F90E0805C9F4F821B43
:1004600091098F73992708958EE592E00E942802E2
:1004700021E0892B09F420E0822F08958BEF92E090
:100480000E94280221E0892B09F420E0822F0895A0
:10049000FC01A48DA80FB92FB11DA35ABF4F2C91F9
:1004A000848D90E001968F739927848FA689B789F0
:1004B0002C93A089B1898C91837080648C93938DE7
:1004C000848D981306C00288F389E02D80818F7D8A
:1004D00080830895EF92FF920F931F93CF93DF9342
:1004E000EC0181E0888F9B8D8C8D98131AC0E88970
:1004F000F989808185FF15C09FB7F894EE89FF893F
:100500006083E889F98980818370806480839FBFDC
:1005100081E090E0DF91CF911F910F91FF90EF90DC
:100520000895F62E0B8D10E00F5F1F4F0F731127EC
:10053000E02E8C8D8E110CC00FB607FCFACFE88927
:10054000F989808185FFF5CFCE010E944802F1CF65
:10055000EB8DEC0FFD2FF11DE35AFF4FF0829FB79B
:10056000F8940B8FEA89FB8980818062CFCFCF938B
:10057000DF93EC01888D8823B9F0AA89BB89E889CB
:10058000F9898C9185FD03C0808186FD0DC00FB671
:1005900007FCF7CF8C9185FFF2CF808185FFEDCFEF
:1005A000CE010E944802E9CFDF91CF91089580E00B
:1005B00090E0892B29F00E943E0281110E940000E8
:1005C00080E090E0892B49F080E090E0892B29F0D1
:1005D0000E94000081110E94000080E090E0892BC1
:1005E00049F080E090E0892B29F00E940000811101
:1005F0000E94000080E090E0892B29F00E943402E4
:1006000081110C9400000895282F30E0F901E85B77
:10061000FE4F9491F901E85FFD4F44912E533E4FF8
:10062000F9012491222309F435C0992311F1915045
:100630009231F8F4E92FF0E08827EE5DFC4F8F4F00
:100640000C9429085303570334034B034F03390316
:100650005A03600364036A036E03720378037C0326
:100660003903800386038A03809180008F7780930B
:100670008000E22FF0E0EE0FFF1FE257FE4FA59142
:10068000B4918FB7F894EC91611148C040954E2316
:100690004C938FBF0895809180008F7DE8CF80912B
:1006A0008000877FE4CF84B58F7784BDE2CF84B5A7
:1006B0008F7DFBCF8091B0008F778093B000D9CF32
:1006C0008091B0008F7DF9CF809190008F778093DB
:1006D0009000CFCF809190008F7DF9CF80919000D6
:1006E000877FF5CF8091A0008F778093A000C1CF46
:1006F0008091A0008F7DF9CF8091A000877FF5CFFA
:10070000809120018F7780932001B3CF80912001C9
:100710008F7DF9CF80912001877FF5CF4E2BB8CF09
:10072000CF93DF9360E08CE00E94040360E088E0F8
:100730000E940403C7E0D0E060E084E00E9404036C
:100740008091980390E00C2E02C0959587950A94AD
:10075000E2F761E080FF60E088E00E94040361E06E
:1007600084E00E940403219738F761E08CE0DF9178
:10077000CF910C9404038CE00E945B0187E00E94FF
:100780005B0188E00E945B0184E00E945B011092A3
:1007900098030E94900360E087E00C9404033FB745
:1007A000F8948091590290915A02A0915B02B09105
:1007B0005C0226B5A89B05C02F3F19F00196A11D2C
:1007C000B11D3FBFBA2FA92F982F8827BC01CD019B
:1007D000620F711D811D911D42E0660F771F881FFA
:1007E000991F4A95D1F708958F929F92AF92BF9229
:1007F000CF92DF92EF92FF920E94CF034B015C01F8
:1008000085E0C82ED12CE12CF12C0E94CF03681971
:1008100079098A099B09683E734081059105A8F30F
:1008200021E0C21AD108E108F10888EE880E83E0C1
:10083000981EA11CB11CC114D104E104F10429F7D4
:10084000FF90EF90DF90CF90BF90AF909F908F90F0
:100850000895FC018081823069F028F423E092E061
:10086000813051F00895833011F126E090E084301A
:1008700019F0089524E091E06230E1F0643079F1FC
:10088000613009F03FC041E050E0BA0101C0660F9D
:100890009A95EAF780919803862B01C0440F2A9518
:1008A000EAF740954823409398030C94900327E07F
:1008B00095E0E2CF41E050E0BA0102C0660F771F39
:1008C0009A95E2F7CB01809590919803892301C016
:1008D000440F2A95EAF7842B80939803E6CF41E0F2
:1008E00050E0FA0102C0EE0FFF1F9A95E2F7CF0128
:1008F00001C0440F2A95EAF7842B809590919803C4
:100900008923EACF0895FB0101900020E9F7319790
:10091000AF01461B570B0C94CA01CF93DF93BC0168
:100920008BEF92E00E948304EC0162E172E08BEFB6
:1009300092E00E9483048C0F9D1FDF91CF91089558
:100940001F920F920FB60F9211240BB60F922F9396
:100950003F934F935F936F937F938F939F93AF9347
:10096000BF93EF93FF938EE592E00E944802FF91C0
:10097000EF91BF91AF919F918F917F916F915F9117
:100980004F913F912F910F900BBE0F900FBE0F9084
:100990001F9018951F920F920FB60F9211240BB64D
:1009A0000F922F938F939F93EF93FF93E0916E029B
:1009B000F0916F028081E0917402F091750282FDE6
:1009C0001DC09081809177028F5F8F732091780294
:1009D000821741F0E0917702F0E0E25AFD4F958FE7
:1009E00080937702FF91EF919F918F912F910F90BC
:1009F0000BBE0F900FBE0F901F9018958081F2CF05
:100A00001F920F920FB60F9211240BB60F922F93D5
:100A10003F934F935F936F937F938F939F93AF9386
:100A2000BF93EF93FF938BEF92E00E944802FF91F8
:100A3000EF91BF91AF919F918F917F916F915F9156
:100A40004F913F912F910F900BBE0F900FBE0F90C3
:100A50001F9018951F920F920FB60F9211240BB68C
:100A60000F922F938F939F93EF93FF93E0910B033C
:100A7000F0910C038081E0911103F091120382FD4B
:100A80001DC09081809114038F5F8F732091150397
:100A9000821741F0E0911403F0E0E550FD4F958F8F
:100AA00080931403FF91EF919F918F912F910F905D
:100AB0000BBE0F900FBE0F901F9018958081F2CF44
:100AC0001F920F920FB60F9211242F933F938F9383
:100AD0009F93AF93BF938091550290915602A0913E
:100AE0005702B09158023091540223E0230F2D3762
:100AF00058F50196A11DB11D209354028093550213
:100B000090935602A0935702B093580280915902D5
:100B100090915A02A0915B02B0915C020196A11DD6
:100B2000B11D8093590290935A02A0935B02B09337
:100B30005C02BF91AF919F918F913F912F910F9048
:100B40000FBE0F901F90189526E8230F0296A11D47
:100B5000B11DD2CFEF92FF920F931F93CF93DF93EC
:100B6000EEE5F2E01382128248EE53E060E070E0BE
:100B7000448355836683778384E092E09183808306
:100B800025E331E03587248724E331E03787268762
:100B900020E331E0318B208B21E331E0338B228B5A
:100BA00022E331E0358B248B26E331E0378B268B33
:100BB000118E128E138E148EEBEFF2E013821282DE
:100BC00044835583668377839183808385EC90E0AB
:100BD0009587848784EC90E09787868780EC90E007
:100BE000918B808B81EC90E0938B828B82EC90E0F8
:100BF000958B848B86EC90E0978B868B118E128E72
:100C0000138E148E10929903E0EAF3E081E0808362
:100C1000C2E0C1830E94BB0380919803837F8093CD
:100C200098030E949003E0E8F0E08081816880836F
:100C3000DAE0D093810010928900109288008BE056
:100C40000E945B01EEE9F3E0C083C1830E94BB0315
:100C5000809198038D7E809398030E94900300E911
:100C600010E0F80180818960808381E9E82EF12C11
:100C7000F701D08310929D0010929C0083E00E94A7
:100C80005B01ECE9F3E083E08083C1830E94BB0356
:100C9000809198038F75809398030E949003E0EAF7
:100CA000F0E0808181688083D093A1001092A90038
:100CB0001092A80086E00E945B01EAE9F3E084E07C
:100CC0008083C1830E94BB03809198038E7B8093B5
:100CD00098030E949003F801808181688083F70166
:100CE000D083109299001092980085E0DF91CF9107
:100CF0001F910F91FF90EF900C945B01CF93DF93C6
:100D0000CDB7DEB7A1970FB6F894DEBF0FBECDBF4B
:100D1000789484B5826084BD84B5816084BD85B5D6
:100D2000826085BD85B5816085BD80916E008160E2
:100D300080936E0010928100809181008260809388
:100D4000810080918100816080938100809180008A
:100D50008160809380008091B10084608093B100B5
:100D60008091B00081608093B0008091910082609A
:100D70008093910080919100816080939100809197
:100D800090008160809390008091A10082608093A8
:100D9000A1008091A10081608093A1008091A000BA
:100DA00081608093A0008091210182608093210165
:100DB00080912101816080932101809120018160D7
:100DC0008093200180917A00846080937A008091E2
:100DD0007A00826080937A0080917A0081608093AB
:100DE0007A0080917A00806880937A001092C10026
:100DF0008BEF92E00E947A018EE592E00E947A01E8
:100E000080EA93E00E94A1018EE993E00E94A10193
:100E10008CE993E00E94A1018AE993E00E94A1017C
:100E20008EE10E945B018FE10E945B0180E20E94E3
:100E30005B0181E20E945B018AE0C82ED12CE12C8B
:100E4000F12C61E08EE10E94040361E08FE10E94D9
:100E5000040361E080E20E94040361E081E20E94F9
:100E600004038EE592E00E9428021816190654F534
:100E70008EE592E00E94060280935D02282F30E00A
:100E800050E040E019A28E010F5D1F4FCA01B90169
:100E9000A70196010E940708605DF80162938F0127
:100EA000211531054105510589F7309729F0BF011A
:100EB0008EE592E00E94830462E172E08EE592E0AA
:100EC0000E94830480915D028130E1F485E192E02B
:100ED0000E948D0461E080EA93E00E94290462E0B0
:100EE0008EE993E00E94290461E08CE993E00E947E
:100EF000290462E08AE993E00E94290410925D02CD
:100F00000E94F40380915D028230E1F483E292E07A
:100F10000E948D0462E080EA93E00E94290461E06F
:100F20008EE993E00E94290462E08CE993E00E943C
:100F3000290461E08AE993E00E94290410925D028D
:100F40000E94F40380915D028330E1F482E392E039
:100F50000E948D0462E080EA93E00E94290462E02E
:100F60008EE993E00E94290462E08CE993E00E94FC
:100F7000290462E08AE993E00E94290410925D024C
:100F80000E94F40380915D028430E1F48FE392E0EB
:100F90000E948D0461E080EA93E00E94290461E0F0
:100FA0008EE993E00E94290461E08CE993E00E94BD
:100FB000290461E08AE993E00E94290410925D020D
:100FC0000E94F40380915D028630E1F48DE492E0AA
:100FD0000E948D0464E080EA93E00E94290464E0AA
:100FE0008EE993E00E94290464E08CE993E00E947A
:100FF000290464E08AE993E00E94290410925D02CA
:101000000E94F4030E94F4030E94D7021ACFA1E2C7
:101010001A2EAA1BBB1BFD010DC0AA1FBB1FEE1F72
:10102000FF1FA217B307E407F50720F0A21BB30BBD
:10103000E40BF50B661F771F881F991F1A9469F739
:1010400060957095809590959B01AC01BD01CF0195
:101050000895EE0FFF1F881F8BBF0790F691E02DBC
:061060001994F894FFCF83
:10106600000000006A02CA01F701B7022802060260
:101076001A020D0A004D4F564520464F525741520F
:101086004421004D4F5645204241434B574152445F
:101096002100524F54415445204C4546542100529C
:1010A6004F54415445205249474854210053544F08
:0410B60050210000C5
:00000001FF
